:020000040800F2
:1000000058170020090100087B220008691C00081D
:1000100079220008A1100008B73A0008000000008B
:10002000000000000000000000000000272B000876
:100030004D150008000000004D2300086D32000837
:100040002301000823010008230100082301000800
:100050002301000823010008E915000869170008BA
:1000600029180008230100082301000823010008C3
:100070002301000823010008691300082301000878
:1000800023010008230100082301000823010008C0
:1000900023010008230100082301000823010008B0
:1000A00023010008230100082301000823010008A0
:1000B000B1330008230100082301000823010008D0
:1000C0002301000823010008230100082301000880
:1000D0002301000845380008DD3800082301000826
:1000E000A9160008230100082301000801340008B4
:1000F00023010008DFF80CD000F0F2FB00480047B5
:10010000A1460008581700200648804706480047C7
:10011000FEE7FEE7FEE7FEE7FEE7FEE7FEE7FEE7B7
:10012000FEE7FEE7E1320008F500000840EA0103BF
:100130009B0703D009E008C9121F08C0042AFAD29D
:1001400003E011F8013B00F8013B521EF9D2704761
:10015000F0B480EA0102D40F4200B2EB410F02D2A8
:100160000246084611464A0042D0C30DDDB2C1F333
:10017000C752AD1A202D35DAC1F3160141F4000241
:1001800004B15242C5F1200602FA06F12A41104498
:10019000B3EBD05F23D0C4B1012DA0EBC35009DC79
:1001A000F0BC4FF0004202EAC352DBB200F500009F
:1001B00000F034BA400000F1807000EBC350A0F1B1
:1001C000807040EAD170490009E0490841EAC071F5
:1001D000A0EBC35000F50000400800EBC350F0BC9A
:1001E00000F013BA6142012202EB4101001BF6E765
:1001F000F0BC704781F00041AAE780F00040A7E71B
:1002000080EA010210B502F00043400022D04A000B
:100210001FD0010E01EB1261C0F35600C2F356026B
:1002200040F4000042F40002A0FB022000047F39E9
:10023000140400D0401C50EA124001D44000491E72
:10024000C2B20C0604EBD010401C4008802A02D039
:1002500003E0002010BD20F00100002900DA00209A
:10026000184310BD30B480EA010202F0004530F0BE
:10027000004221F0004013D090B1C30DD40DC2F361
:100280001601C0F31600E41A41F4000140F4000224
:100290007D34914201D3641C00E04900002C02DA55
:1002A00030BC002070474FF400000023914201D37E
:1002B000891A034340084FEA4101F7D151B19142F5
:1002C00002D14FF0004105E002D24FF0010101E000
:1002D0006FF0010103EBC450284430BC00F095B925
:1002E000420005D0C0F3C7525242914201DC0020C7
:1002F000704700EBC15070472DE9FE4F81EA0304BF
:1003000004F0004421F0004100944FF0000B23F072
:10031000004350EA01045ED052EA03045BD0C3F309
:100320000A54C1F30A552C44A4F2F3340194A0FBFF
:100330000254C1F3130141F48011C3F3130343F4D6
:10034000801301FB024400FB034E840A970A44EA2F
:10035000815447EA8357A4FB076802958D0A05FB81
:1003600007854FEA932C04FB0C542705029D4FEAA6
:10037000065847EA1637B5EB08056EEB070C870EF3
:10038000920E47EA811742EA8312A7FB0201B6EBFD
:100390000B0164EB00042B0D43EA0C335E1844EBB5
:1003A0001C50DA465146E7FB0201C5F313044FEA3D
:1003B0000B3343EA14534FEA0432019C43EA060329
:1003C000A4F10C040294009CCDE900B400F063F9A0
:1003D00003B0BDE8F08F00200146F9E72DE9F04DAC
:1003E00081EA030404F0004B21F0004514464FF06D
:1003F000000A23F0004150EA050220D054EA01022D
:100400001DD0C5F30A570246C5F31303C1F3130009
:10041000C1F30A5640F4801543F48013A7EB060895
:10042000101BD64608F2FD3873EB050002D308F125
:10043000010801E092185B41B8F1000F03DA0020D7
:100440000146BDE8F08D00204FF480110646844639
:100450000EE0171B73EB050705D3121B63EB0503B7
:1004600006434CEA010C49084FEA300092185B4100
:1004700050EA0107EDD152EA030012D082EA0400EB
:1004800083EA0501084305D0101BAB4106D20122C7
:10049000002306E000224FF0004302E06FF001026B
:1004A00053101AEB06004CEB085110EB0A0041EB1D
:1004B0000B01BDE8F04D00F0DFB8C10F80EAE0703D
:1004C0000844CA079623002100F0A8B8962300220A
:1004D000114600F0A3B800F0004220F00040C10D2A
:1004E000C0F3160040F400007F2901DA00207047B5
:1004F000962903DCC1F19601C84001E09639884095
:10050000002AF4D04042704700F0004230F0004032
:100510000AD0C10D01F56071C0F3160042EA015125
:10052000C20840071143704700200146704701F0A0
:10053000004330B421F0004150EA010206D00A0D18
:10054000A2F56072C1F31301002A02DC30BC002066
:100550007047440F44EAC104C100E01830BC00EB0E
:10056000C25000F052B80000002801DBC0F100408A
:10057000002901DBC1F100418842704730B50B46CC
:10058000014600202022012409E021FA02F59D42C3
:1005900005D303FA02F5491B04FA02F52844151E97
:1005A000A2F10102F1DC30BD2DE9F05F054600202B
:1005B00092469B4688460646814640241BE02846D4
:1005C00041464746224600F0ACF953465A46C01A07
:1005D000914110D311461846224600F093F92D1A86
:1005E00067EB01084F4622460120002100F08AF9FE
:1005F00017EB00094E41201EA4F10104DFDC484640
:1006000031462A464346BDE8F09F0029A8BF7047FF
:10061000401C490008BF20F00100704710B4B0FA38
:1006200080FC00FA0CF050EA010404BF10BC7047D3
:1006300049B1CCF1200421FA04F411FA0CF118BFED
:10064000012121430843A3EB0C01CB1D4FEA0061BC
:100650004FEA102042BF002010BC704700EBC3508F
:1006600010440029A4BF10BC7047401C490008BFBB
:1006700020F0010010BC704710B5141E73F1000487
:1006800008DA401C41F1000192185B411A4301D184
:1006900020F0010010BD2DE9F04D92469B4611B1AE
:1006A000B1FA81F202E0B0FA80F22032904600F016
:1006B00029F904460F4640EA0A0041EA0B01534675
:1006C0005A46084313D0114653EA010019D0C8F125
:1006D0004002504600F025F905460E465046594660
:1006E000424600F00FF9084305D0012004E02046FF
:1006F0003946BDE8F08D0020054346EAE0762C43FC
:1007000037430A986305E40AA0EB08000022FD0ABB
:1007100044EA47540A3002D500200146E9E70105C2
:1007200010196941DDE9084500196941BDE8F04D3E
:10073000A2E72DE9FE4F804681EA0300C00F0C4678
:10074000009021F0004123F00045B8EB0200A941E0
:1007500005D24046214690461C460B46024623F0F1
:100760000040104347D0270DC7F30A00C3F30A51D6
:100770000290401A019040286BDAC3F3130040F452
:10078000801B0098924620B10023D2EB030A63EB52
:100790000B0B01985946C0F14002504600F0B2F8E8
:1007A00006460D4650465946019A00F0CAF810EB2D
:1007B00008006141002487EA115284EAE7731A4372
:1007C00040D0009A62B3019A012A4FEA075215DC21
:1007D000001B61EB02014FF0004202EA0752CDE933
:1007E0000042001C41F5801132462B46FFF753FFB3
:1007F00003B0BDE8F08F40462146F9E7001B61EBEE
:100800000201001C41F5801300185B412018A2F57D
:10081000001747EB030140EAD570B6196D4111E0AE
:100820006D084FEA360645EAC0754FEA0752001BCD
:1008300061EB0201001C41F5801149084FEA3000CC
:100840000019514132462B4603B0BDE8F04FFFF787
:1008500013BF0098012240000023D0EB020263EB9B
:10086000E073009821464FEAE074B8EB000061EBBA
:100870000401E9E783F000435BE781F0004158E7BA
:10088000C1F30A52C1F3130140F2FF3341F4801166
:100890009A4202DA00200146704740F233439A42FE
:1008A000A2F2334202DC524200F03BB800F02AB818
:1008B00030B5041E71F1000404DB4FF000444042E7
:1008C00064EB0101141E73F1000405DB1C464FF0BC
:1008D0000043524263EB0403994208BF904230BD8B
:1008E000064C074D06E0E06840F0010394E807007D
:1008F00098471034AC42F6D3FFF700FCB04900082B
:10090000D0490008202A04DB203A00FA02F1002036
:1009100070479140C2F1200320FA03F3194390403D
:100920007047202A04DB203A21FA02F000217047A8
:1009300021FA02F3D040C2F1200291400843194647
:100940007047202A06DBCB17203A41FA02F043EA2F
:10095000E07306E041FA02F3D040C2F12002914078
:1009600008431946704770B58C1810F8015B15F0F4
:10097000070301D110F8013B2A1106D110F8012B11
:1009800003E010F8016B01F8016B5B1EF9D12B0736
:1009900005D40023521E0DD401F8013BFAE710F8EC
:1009A000013BCB1A921C03E013F8015B01F8015BD9
:1009B000521EF9D5A142D8D3002070BD2DE9F05FB9
:1009C0009248016892480A79C91DFFF7AFFB904829
:1009D0008188C1F3072242EA01210AB28280447869
:1009E000210742D0817819B10023012937D000E0D6
:1009F000012300252B43022933D000252B43042952
:100A000031D000252B4330D08246E007814D824C07
:100A10004FF084064FF00C074FF004084FF0200908
:100A20003AD0DFF8F8B18BF800109AF80300A872FA
:100A30002A81012205F10A014A2001F0A3FB0222CA
:100A400005F10801482001F09DFB9BF8000070B102
:100A500001280ED002280ED0042811D10EE0012565
:100A6000C8E70125CAE70125CCE70621C8E02670C2
:100A700006E0277004E084F8008001E084F800902C
:100A80002078644985F82C0001222C316C2001F07B
:100A900079FB63A003F032F99AF80100800737D59B
:100AA000DFF8A0B19AF802208BF800209AF8031022
:100AB0006975BAF804005749A5F8130001221531E9
:100AC000552001F05FFB534902221331532001F0FE
:100AD00059FB9BF8000030B1012806D0022806D04F
:100AE000042809D106E0267006E0277004E084F8A7
:100AF000008001E084F800902078464985F82D00B8
:100B000001222D316D2001F03DFB4FA003F0F6F8DE
:100B10009AF80100400737D5DFF850B19AF8022063
:100B20008BF800209AF8031085F82010BAF804001A
:100B30003849E88301222031602001F023FB354948
:100B400002221E315E2001F01DFB9BF8000030B137
:100B5000012806D0022806D0042809D106E0267014
:100B600006E0277004E084F8008001E084F800903B
:100B70002078284985F82E0001222E316E2001F0C0
:100B800001FB3BA003F0BAF89AF8011050460907A0
:100B900035D5DFF800A182788AF80020C17885F881
:100BA0002B1080881B49A5F8290001222B316B20CE
:100BB00001F0E8FA174902222931692001F0E2FA2E
:100BC0009AF8000030B1012806D0022806D0042887
:100BD00009D106E0267006E0277004E084F8008062
:100BE00001E084F8009020780A4985F82F0001225E
:100BF0002F316F2001F0C6FA27A003F07FF8002103
:100C0000BDE8F05F032001F055BC00000C0000209F
:100C1000260000201C050020250000208C04002058
:100C20004368616E6E656C204120436F6E66696734
:100C300075726174696F6E2046696E697368656468
:100C4000210D0A00B00400204368616E6E656C20BF
:100C50004220436F6E66696775726174696F6E20BA
:100C600046696E6973686564210D0A00D40400202A
:100C70004368616E6E656C204320436F6E666967E2
:100C800075726174696F6E2046696E697368656418
:100C9000210D0A00F80400204368616E6E656C2027
:100CA0004420436F6E66696775726174696F6E2068
:100CB00046696E6973686564210D0A0030B50E4996
:100CC00010220A830D4CD302238001240C830225B9
:100CD0000D83012807D0022807D0042809D008284E
:100CE00000D14D8330BD4A8330BD0448801C038051
:100CF00030BD4C8330BD00000000024018080240A7
:100D000070B50D4604460121002000F043F9002192
:100D1000012000F03FF90021022000F03BF9002102
:100D20000A2000F037F9EC210C2000F033F91321F0
:100D30000D2000F02FF9FF210B2000F02BF944F0DB
:100D40007001032000F026F92946BDE870400E200E
:100D500000F020B910B50024FF2000F001F960F385
:100D60000704FF2000F0FCF860F30F24FF2000F0E0
:100D7000F7F860F3174420BA001210BD2DE9F05FB8
:100D800000268346B04635463746B2463446B1461D
:100D900001F058FA5846FFF791FF61485946BBF1F8
:100DA000010F07D002290ED0042939D0BBF1080F5A
:100DB00018D13FE05B4D90F82C60B0F9087095F8C1
:100DC0000780046808E0584D90F82D60B0F9137062
:100DD00095F8078050F80B4F40682146FFF70AFA54
:100DE0008246AD78FFF7B6FFFFF767FB4F49FFF785
:100DF00039FAFFF789FB4E4A4E4BFFF77DFAFFF7B2
:100E000096FB1AF1FF4F01D38AF0004A4A49042E9B
:100E10003AD00C2E18D0202E61D0842E4BD113E066
:100E2000464D90F82E60B0F91E7095F8078050F886
:100E3000164FD1E7424D90F82F60B0F9297095F820
:100E4000078050F8214FC7E7FFF7DAF9FFF75CFB9F
:100E50004FF0A0423B4BFFF7C1FAFFF768FB064695
:100E60004046FFF733FB01463046FFF7FBF93649B2
:100E7000FFF7C6F92146FFF7BDF93449FFF7C0F97E
:100E80005146FFF7EFF90BE0FFF7BAF9FFF73CFB2C
:100E90004FF0A0422B4BFFF7A1FAFFF748FB24E0ED
:100EA00004463846FFF709FB2146FFF7A9F9284910
:100EB000FFF7D8F981465846BBF1010F21D002282F
:100EC00024D0042827D0BBF1080F06D14846FFF7ED
:100ED00002FB1B4901EB85014860BDE8F09F1D49FD
:100EE000FFF78EF91C49FFF7BDF904464046FFF7AE
:100EF000EDFA01462046FFF7B5F91849FFF780F9EA
:100F0000CEE74846FFF7E7FA0649E3E74846FFF72A
:100F1000E2FA0549DEE74846FFF7DDFA0749D9E777
:100F20001C0500208C040020B0040020FEFFFF4AB6
:100F3000FCA9F1D24D62004000B2BB48D4040020AD
:100F4000F8040020E73BAD4100007A448096984ABF
:100F50000000FA4400006147009C604CA5D468532F
:100F600070B50B4C05460221204601F0B5FD002866
:100F7000F9D02946204601F0B8FD0121204601F0B4
:100F8000ABFD0028F9D0204601F0ADFDC0B270BD28
:100F90000030014010B500F00F000C464030FFF764
:100FA000DFFF0020FFF7DCFF2046BDE81040FFF721
:100FB000D7BF00002DE9F04395B0324DDFF8C8806F
:100FC000DFF8C89000246E461220FFF7C9FFFFF734
:100FD000C1FEFFF772FA0746CD2000F0B9FA1220E1
:100FE000FFF7BEFF29463846FFF73CF9FFF78CFABA
:100FF00042464B46FFF780F9FFF799FA46F824007E
:10100000641CE4B2152CDFD30024671CFDB210E091
:1010100056F8251056F82400FFF7A6FA07D256F81E
:10102000240056F8251046F8241046F825006D1CBB
:10103000EDB2152DECD3FCB2152CE6D3DDE9080199
:10104000FFF786F80A99FFF783F80B99FFF780F806
:101050000C99FFF77DF80D99FFF77AF80E99FFF7D5
:1010600077F80B49FFF7FEF80A49FFF7C9F8FFF7D1
:101070004BFA094A094BFFF7B1F915B0BDE8F04347
:10108000FFF755BAFEFFFF4AFCA9F1D24D620040BE
:101090000000E04000B2BB48713D0AD7A3F00D410B
:1010A000FEE700002DE9F0416548016865480A79CE
:1010B000C91DFFF73BF8634C6078012803D000217D
:1010C00002281BD000E0012100221143042817D080
:1010D00000221143082815D00022114314D0D4F85F
:1010E0000210594E09BAC4F80210D4F80620574D20
:1010F00017BAC4F80670012808D026E00122E4E7F8
:101100000122E6E70122E8E7062191E00846FFF721
:10111000D4F93146FFF7A6F828603846FFF7CDF935
:101120003146FFF79FF8686004224849402001F0EB
:1011300029F80422291D442001F024F844A002F0DB
:10114000DDFD0021172001F0B5F96078022824D1D7
:10115000D4F80200FFF7B1F93146FFF783F8C5F87C
:101160000B00D4F80600FFF7A8F93146FFF77AF82C
:101170003649C5F80F0004220B314B2001F002F86C
:10118000324904220F314F2000F0FCFF36A002F05C
:10119000B5FD0021172001F08DF96078042824D1D5
:1011A000D4F80200FFF789F93146FFF75BF8C5F87C
:1011B0001600D4F80600FFF780F93146FFF752F821
:1011C0002249C5F81A0004221631562000F0DAFF31
:1011D0001E4904221A315A2000F0D4FF28A002F040
:1011E0008DFD0021172001F065F96078082824D1D1
:1011F00054F8020FFFF761F93146FFF733F845F86D
:10120000210F6068FFF759F93146FFF72BF80F49B6
:10121000686004222131612000F0B4FF0B490422F0
:101220002531652000F0AEFF1BA002F067FD002114
:10123000BDE8F041172001F03DB9BDE8F0810000A4
:101240000C00002055050020286B6E4E1C05002068
:101250004368616E6E656C20412053657474696EDD
:1012600067204F4B210D0A004368616E6E656C204C
:10127000422053657474696E67204F4B210D0A003C
:101280004368616E6E656C20432053657474696EAB
:1012900067204F4B210D0A004368616E6E656C201C
:1012A000442053657474696E67204F4B210D0A000A
:1012B0002B4810B501682B480A79C91DFEF736FF87
:1012C000284C6178080737D0A07818B1002201288F
:1012D0000AD000E0012200231A432DD0C9070AD00A
:1012E00020B1012805D027E00123F5E702F0E4FB57
:1012F00001E000F093FB6078800709D5A07810B179
:10130000012803D018E002F01BFC01E000F0CEFB46
:101310006078400709D5A07810B1012803D00BE010
:1013200002F058FC01E000F00BFC607800070ED5DD
:10133000A07838B1012808D006211D2001F0BAF8A4
:10134000002010BD02F090FC01E000F043FC002101
:101350001D2001F0AFF80020FFF7B0FC012010BD08
:101360000C0000202E00002010B54FF40054204641
:1013700000F0A2F800280DD0204600F013F800215C
:10138000054800F01BF80821044800F042FB04491E
:101390000020087010BD00004460024000040240BC
:1013A0004B040020C10002D4024948607047024942
:1013B0000860704700600240046402400029016830
:1013C00002D041F0010102E04FF6FE7211400160CF
:1013D0007047000001684FF6FE7211400160002165
:1013E000016041608160C1603149314A08399042F1
:1013F00003D1486840F00F0006E02D4A14329042B5
:1014000004D1486840F0F00048607047284A28320C
:10141000904203D1486840F47060F5E7244A3C32BA
:10142000904203D1486840F47040EDE7204A5032C2
:10143000904203D1486840F47020E5E71C4A6432CA
:10144000904203D1486840F47000DDE7184A7832D2
:10145000904203D1486840F07060D5E7154A111FEB
:10146000904203D1086840F00F0006E0114A1432A0
:10147000904204D1086840F0F000086070470D4ABF
:101480002832904203D1086840F47060F5E7094AB9
:101490003C32904203D1086840F47040EDE7054AC1
:1014A00050329042EAD1086840F47020E5E700002D
:1014B000086002400864024001460020CA0001D4CE
:1014C000034A00E0034A12680A4200D00120704734
:1014D0000060024000640240002A026801D00A4312
:1014E00000E08A430260704730B5036847F6F07247
:1014F00093430C6A8A682243D1E904452C43224372
:101500008C692243CC6922434C6A22438C6A224371
:101510001A430260CA6842600A6882604968C16012
:1015200030BD10B504460068000E03F0D7F92068FE
:10153000C0F3074003F0D2F92088C0F3072003F07E
:10154000CDF92078BDE8104003F0C8B9704700001D
:1015500001B5009801F06CFF0448012181608168A9
:101560000029FCD1BDE8084001F03ABF0800002086
:1015700030B585B00121022000F0EAFE01240025EB
:101580008DF80C508DF80F4002948DF80D4002A993
:10159000134800F0F7F90121084600F0FDFE002194
:1015A000012001F0C1FA8DF804500C208DF80500DF
:1015B00000948DF80640684600F068F906208DF822
:1015C00010008DF811508DF812408DF8134004A8CA
:1015D00000F054FE03480168056005B030BD00000E
:1015E000000402400004014010B5012000F044F95D
:1015F000002814D00A4801214170D0F8021009488F
:101600000278114301D1082101704FF400410648CE
:1016100000F0FBF9BDE81040012000F027B910BD33
:10162000F8040020030000200004024070B586B0DA
:101630000121022000F08CFE00248DF80C400125D1
:101640004FF480668DF80F5002968DF80D5002A968
:10165000134800F097F90121084600F09DFE0A2189
:10166000012001F061FA8DF804400C208DF805008E
:1016700000968DF80650684600F008F928208DF88D
:1016800010008DF8114004208DF812008DF81350D1
:1016900004A800F0F3FD03480168046006B070BDC3
:1016A000000402400004014010B54FF4806420465D
:1016B00000F0E2F8002813D00A4A01215170D2F854
:1016C0000200094A1378184300D111704FF4004109
:1016D000064800F09AF92046BDE8104000F0C6B870
:1016E00010BD00008C040020030000200004024014
:1016F00070B586B00121022000F02AFE00248DF88A
:101700000C40012502268DF80F5002968DF80D50E1
:1017100002A9134800F036F90121084600F03CFE0A
:101720000121084601F000FA8DF804400C208DF8E4
:10173000050000968DF80650684600F0A7F80720CF
:101740008DF810008DF811408DF812608DF813504F
:1017500004A800F093FD03480168046006B070BD62
:10176000000402400004014010B5022000F084F89B
:10177000002814D00A4801214170D0F8021009480D
:101780000278114301D1042101704FF40041064851
:1017900000F03BF9BDE81040022000F067B810BD32
:1017A000D4040020030000200004024070B586B07D
:1017B0000121022000F0CCFD00248DF80C40012511
:1017C00004268DF80F5002968DF80D5002A914488A
:1017D00000F0D8F80121084600F0DEFD02210120CA
:1017E00001F0A2F98DF804400C208DF80500009658
:1017F0008DF80650684600F049F808208DF8100072
:101800008DF8114003208DF812008DF8135004A8B4
:1018100000F034FD03480168046006B070BD0000AC
:10182000000402400004014010B5042000F024F838
:10183000002814D00A4801214170D0F8021009484C
:101840000278114301D1022101704FF40041064892
:1018500000F0DBF8BDE81040042000F007B810BD30
:10186000B004002003000020000402400149086089
:101870007047000014040140034A0146002012682A
:101880000A4200D0012070471404014030B51A49C3
:101890008379026853B30B6893430B600A1D136886
:1018A0000468A343136002790A441368046823435D
:1018B0001360114A083213680468A3431360131DB0
:1018C0001C680568AC431C604479102C05D0214489
:1018D0000A68006802430A6030BD11680468214349
:1018E0001160196800680143196030BD007908442F
:1018F00001689143016030BD000401402DE9FC41C5
:101900000121084600F024FD0121022000F020FD05
:1019100001248DF8044000258DF80650184F4FF42F
:1019200040468DF8074000968DF8055069463846C8
:1019300000F028F83146384600F06DF88DF8044084
:10194000E0028DF8065000908DF805508DF80740A4
:101950006946384600F016F88DF8044008208DF8E6
:10196000065000908DF805408DF8074069463846CE
:1019700000F008F80821384600F04BF8BDE8FC817B
:1019800000040240F0B5002301244FF0030E00BF15
:101990000D6804FA03F21540954222D106685D00F5
:1019A0000EFA05FC0F7926EA0C06AF4037430760B4
:1019B0000E79012E01D0022E0CD186684F7926EACD
:1019C0000C06AF4037438760868896438A799A40F1
:1019D00032438280C668CA7926EA0C06AA4032439E
:1019E000C2605B1C102BD3D3F0BD4B07DB0E9A40BB
:1019F000C90810B500EB8100016A0F249C40A14387
:101A00000162016A1143016210BD828A4A408282EA
:101A100070474183704701837047000010B511A0E3
:101A200002F06CF90120FFF749F90C210020FFF7C3
:101A300067F91220FFF794FACD20FFF789FDFFF731
:101A4000B9FA134C6FF00601FEF74AFC60600422FD
:101A5000211D442000F096FBBDE810400DA002F0CF
:101A60004DB900004368616E6E656C20412053657E
:101A70007474696E6720746F2048616C662C506CBA
:101A80006561736520776169742E2E2E0D0A000042
:101A90001C0500204368616E6E656C204120536513
:101AA0007474696E67204F4B210D0A0010B512A0A7
:101AB00002F024F90220FFF701F90C210020FFF7C2
:101AC0001FF91220FFF74CFACD20FFF741FDFFF779
:101AD00071FA144C6FF00601FEF702FCC4F80F0017
:101AE000042204F10F014F2000F04CFBBDE8104030
:101AF0000DA002F003B900004368616E6E656C20B2
:101B0000422053657474696E6720746F2048616C5D
:101B1000662C506C6561736520776169742E2E2E7A
:101B20000D0A00001C0500204368616E6E656C2084
:101B3000422053657474696E67204F4B210D0A0073
:101B400010B512A002F0DAF80420FFF7B7F80C2164
:101B50000020FFF7D5F81220FFF702FACD20FFF79B
:101B6000F7FCFFF727FA144C6FF00601FEF7B8FBFD
:101B7000C4F81A00042204F11A015A2000F002FBF2
:101B8000BDE810400DA002F0B9B800004368616ED6
:101B90006E656C20432053657474696E6720746FA2
:101BA0002048616C662C506C6561736520776169B3
:101BB000742E2E2E0D0A00001C0500204368616E55
:101BC0006E656C20432053657474696E67204F4BBB
:101BD000210D0A0010B512A002F090F80820FFF7BE
:101BE0006DF80C210020FFF78BF81220FFF7B8F9F1
:101BF000CD20FFF7ADFCFFF7DDF9144C6FF00601C7
:101C0000FEF76EFBC4F82500042204F125016520CF
:101C100000F0B8FABDE810400DA002F06FB8000067
:101C20004368616E6E656C20442053657474696E00
:101C30006720746F2048616C662C506C6561736519
:101C400020776169742E2E2E0D0A00001C050020DD
:101C50004368616E6E656C20442053657474696ED0
:101C600067204F4B210D0A0002480068C00700D0D2
:101C700000BEFEE7F0ED00E030B501214C0587B075
:101C8000204600F071FB0121022000F061FB0121E0
:101C9000084600F081FB0121204600F071FB002185
:101CA000204600F06DFB1F4D042206212846FFF759
:101CB0009CFE042207212846FFF797FEC020012141
:101CC00004908DF8151002208DF814008DF8161070
:101CD00000248DF8174004A92846FFF753FE124D43
:101CE000284600F0F3F8ADF804404BF6FF70ADF86D
:101CF00006003020ADF808002815ADF80A000001F4
:101D0000ADF80C00094800900121284600F0BAF80F
:101D10006946284600F01AF90121284600F0CBF860
:101D200007B030BD0004024000540040400D0300E5
:101D30002DE9F05F14000E4681467DD04FF6FF7A04
:101D4000554600F0EFF94C4F4FF400384146384605
:101D500000F0E6F808B16D1EF8D20121384600F017
:101D600091F80121384600F0C7F8DFF81081554698
:101D70004146384600F090F808B96D1EF8D20022AE
:101D8000A021BB46384600F0C3F957465546DFF858
:101D9000F0A05846514600F07FF808B96D1EF8D201
:101DA0004FEA1921584600F0BBF9BA463D46344F78
:101DB000BF1C3946584600F06FF808B96D1EF8D2BE
:101DC00009F0FF01D946584600F0AAF9BB4655462E
:101DD0004F465946384600F05FF808B96D1EF8D2F4
:101DE0000121B946384600F087F855465746414626
:101DF000484600F051F808B97F1EF8D20122A02110
:101E0000484600F085F9DFF874A0A8462F460AF18D
:101E1000010A4D465146284600F03EF808B97F1E9B
:101E2000F8D2DFF858902F4609F13F09DCB1012CB8
:101E300009D10021384600E01BE000F023F8012121
:101E4000384600F063F845464946384600F024F825
:101E500008B96D1EF8D2384600F057F9641E06F82E
:101E6000010BA4B2E2E73846BDE8F05F012100F0C3
:101E700009B8BDE8F09F00000054004001000300D5
:101E8000820007000029018802D041F4806101E04E
:101E900021F480610180704702460020938A128BF2
:101EA00043EA024323F07F42914300D1012070476F
:101EB000C943818270470029018802D041F00101A5
:101EC00001E021F00101018070470000094910B5CF
:101ED00088424FF0010101D14C0501E04FF480042C
:101EE000204600F04DFA2046BDE81040002100F0E9
:101EF00047BA0000005400400029018802D041F494
:101F0000807101E021F4807101807047002901880F
:101F100002D041F4007101E021F4007101807047AA
:101F20000CB50246002000920A0F21F07F41019279
:101F300002D0009A143202E0009A090C1832009282
:101F400012680A4200D001200CBD00007FB5044693
:101F500080880D4620F03F06684600F03DFA27498C
:101F60000298B0FBF1F189B20E43A680228822F0DC
:101F700001022280224B2A689A421BD85200B0FBF1
:101F8000F2F080B2042800D20420491C2184A083EE
:101F9000208840F00100208021884FF6F530014074
:101FA000A8886A89104308432080A88929890843A2
:101FB00020817FBDEB88A3F53F46FF3E0BD002EBAF
:101FC000C20303EB0212B0FBF2F080B240F4804097
:101FD000020506D007E002EB4202B0FBF2F080B24D
:101FE000F6E740F001004FF4967251434FF47A72D5
:101FF000B1FBF2F140F40040C7E7000040420F009F
:10200000A08601002DE9F0474FF6FF74DFF8E49059
:1020100016460F46804625464FF4003A514648463C
:10202000FFF77EFF10B16D1EF8D201E0002D5ED0EB
:1020300001214846FFF760FFDFF8BCA02546514666
:102040004846FFF729FF58B385B30022A021484630
:1020500000F05EF8DFF8A4A0254651464846FFF799
:102060001BFF00B315B300BF4FEA1821484600F02C
:1020700057F8224DA246AD1C29464846FFF70CFFF3
:10208000A8B19CB108F0FF01484600F049F8544659
:10209000A84641464D464846FFF7FEFE50B10CE0CB
:1020A0006D1ECCD2D1E76D1ED7D2DDE71FE0641ED6
:1020B000E2D2E7E7641EECD20FE0C4B10DE039785C
:1020C000284600F02DF854467F1C41462846FFF76D
:1020D000E3FE0028F1D1641EF7D2761EF6B2EED2EE
:1020E00001212846FFF712FF0120BDE8F0870020FC
:1020F000FBE70000005400400100030082000700DD
:1021000008B508440090008808BD008AC0B2704736
:1021100012B141F0010101E001F0FE0101827047BE
:102120000182704770B5134C134E144D012128469F
:10213000FFF7E2FE14212846FFF7E2FF0022A0216C
:102140002846FFF7E5FFB44201D1FFF795FD1421C2
:102150002846FFF7D5FF800701D4641EE6D2084960
:102160002846FFF7A5FE2846BDE870400121FFF78D
:10217000CDBE0000F6FF09000EFC0900005400402F
:10218000000400102DE9F04114460F46064600F009
:102190003F05FFF7C7FF1DB3C5F14005AC4222D391
:1021A0002A4639463046FFF72DFF601B84B270196E
:1021B00086B22F4412E000BFFFF7B4FFBDE8F08104
:1021C000402C10D3402239463046FFF71BFF002831
:1021D000F4D0403C4036A4B2B6B24037FFF7A2FF7D
:1021E000002CEDD1EAE7E2B239463046FFF70AFFAC
:1021F0000028E1D1E2E7000002494CF6CC4008603B
:10220000704700000030004010B50446012000F087
:102210004BF9412000F034F90028FAD045F255502E
:1022200000F024F8062000F015F80720B4FBF0F0C9
:1022300080B200F015F800F005F8BDE81040FFF797
:10224000DBBF000002494AF6AA2008607047000080
:1022500000300040014948607047000000300040F5
:102260000149886070470000003000400149086063
:102270007047000000300040FEE7704730B50F2285
:10228000C47801780123FCB1144C246801F1E021E9
:1022900004F4E064C4F5E064C4F30724C4F1040565
:1022A000E2404478AC408578154025432A0181F806
:1022B0000024007800F01F018B404009800000F1ED
:1022C000E020C0F8003130BD01F01F008340480914
:1022D000800000F1E020C0F8803130BD0CED00E05E
:1022E0000249084302490860704700000000FA05EF
:1022F0000CED00E008B52B208DF8000001208DF8D2
:10230000010002218DF802108DF803006846FFF7E6
:10231000B5FF08BD38B525208DF8000001248DF8E3
:10232000014000208DF802008DF803406846FFF759
:10233000A5FF26208DF800008DF801408DF80240A1
:102340008DF803406846FFF799FF38BD70470000DD
:10235000044A0029116801D0014300E08143116063
:10236000704700001C380240044A0029116801D05F
:10237000014300E0814311607047000024380240AF
:10238000044A0029116801D0014300E08143116033
:102390007047000018380240044A0029116801D033
:1023A000014300E081431160704700002038024083
:1023B000044A0029116801D0014300E08143116003
:1023C00070470000143802400248016841F08071F3
:1023D000016070473438024030B5264A1168A2F1D6
:1023E000040411F00C034FF4004105D0042B09D074
:1023F000082B09D00C2B0AD02368C3F342335B1C93
:1024000099401AE01C4918E04FF4E10115E0116809
:10241000136801F47011194C03F4400304EB91416B
:102420000978012404EB9353146814F4803F1ED000
:102430004FF4E1046143B1FBF3F1016011680F2334
:1024400003EA11110D4B09335C5C0168E140416006
:102450001468072505EA14241C5D21FA04F484603D
:10246000126805EAD2229A5CD140C16030BD024CAC
:10247000E0E70000083802400024F4004D0400208A
:10248000014600204A09012A09D0064A126801F0D3
:102490001F0101238B40134200D001207047014AE5
:1024A000343AF3E7343802400149086070470000CD
:1024B000800647421CB5FF228DF800208DF80100F0
:1024C0008DF8021000208DF803008DF8040005211E
:1024D000684600F04DFE034801780029FCD1012137
:1024E00001701CBD4B040020FEB51A4D15201A4E7C
:1024F0008DF8000028683146FDF782FEFDF7EBFFFE
:10250000044668683146FDF77BFEFDF7E4FF210EC7
:102510008DF80210210C8DF80310210A8DF804109B
:102520008DF80540010E8DF80610010C8DF807108E
:10253000010A8DF808108DF8090001248DF801407A
:102540000C21684600F014FE044801780029FCD1F3
:102550000470FEBD1C050020286B6E4E4B0400204D
:10256000FEB51B4D15201B4E8DF8000055F80B0FC6
:102570003146FDF745FEFDF7AEFF0446686831467B
:10258000FDF73EFEFDF7A7FF210E8DF80210210C8E
:102590008DF80310210A8DF804108DF80540010E06
:1025A0008DF80610010C8DF80710010A8DF808103F
:1025B0008DF8090002208DF801000C21684600F01A
:1025C000D7FD054801780029FCD101210170FEBD2D
:1025D0001C050020286B6E4E4B040020FEB51B4DE1
:1025E00015201B4E8DF8000055F8160F3146FDF7EB
:1025F00007FEFDF770FF044668683146FDF700FEF0
:10260000FDF769FF210E8DF80210210C8DF80310E3
:10261000210A8DF804108DF80540010E8DF8061082
:10262000010C8DF80710010A8DF808108DF80900CB
:1026300004208DF801000C21684600F099FD054842
:1026400001780029FCD101210170FEBD1C0500208C
:10265000286B6E4E4B040020FEB51B4D15201B4E03
:102660008DF8000055F8210F3146FDF7C9FDFDF743
:1026700032FF044668683146FDF7C2FDFDF72BFFC7
:10268000210E8DF80210210C8DF80310210A8DF80F
:1026900004108DF80540010E8DF80610010C8DF820
:1026A0000710010A8DF808108DF8090008208DF830
:1026B00001000C21684600F05BFD05480178002907
:1026C000FCD101210170FEBD1C050020286B6E4E5F
:1026D0004B04002030B585B0FF208DF801008DF847
:1026E00002008DF803008DF804004CA001F006FBF9
:1026F000504801248DF8004090F82C500222042309
:102700000021842D06D00C2D07D0042D08D0202DBB
:1027100009D00AE08DF8011007E08DF8014004E0CF
:102720008DF8012001E08DF8013090F82D50842DB6
:1027300006D00C2D07D0042D08D0202D09D00AE09A
:102740008DF8021007E08DF8024004E08DF80220B9
:1027500001E08DF8023090F82E50842D06D00C2D1B
:1027600007D0042D08D0202D09D00AE08DF80310E1
:1027700007E08DF8034004E08DF8032001E08DF8B8
:10278000033090F82F50842D06D00C2D07D0042D47
:1027900008D0202D09D00AE08DF8041007E08DF84C
:1027A000044004E08DF8042001E08DF80430827AC2
:1027B0008DF80520427D8DF8062090F820208DF8B8
:1027C000072090F82B208DF808200289130A8DF835
:1027D00009308DF80A20B0F813208DF80C20130A68
:1027E0008DF80B30C28B130A8DF80D308DF80E204A
:1027F000B0F829008DF81000020A8DF811108DF83C
:1028000012108DF80F201321684600F0B1FC0A4821
:1028100001780029FCD1047005B030BD5265747593
:10282000726E204368616E6E656C20434647210DD1
:102830000A0000001C0500204B04002010B5FFF723
:1028400053FEFFF78DFEFFF7C9FEBDE81040FFF70E
:1028500003BF00002DE9F0470646A12002F050F822
:10286000292002F03BF8DFF8F480444698F8010094
:1028700002F034F8304602F031F860784FF000058D
:10288000C0071DD0012002F029F8002416E03448CA
:1028900000EB8407B868FDF710FE3249FDF7E2FC53
:1028A000FDF732FE02460B46611C2FA001F026FA0E
:1028B00007F10800FEF735FEBD60641CB442E6D3A4
:1028C00098F80100800711D5022002F007F80024D3
:1028D000DFF8A49008E000BF09EB840707F10800C7
:1028E000FEF71FFEBD60641CB442F5D398F80100EA
:1028F000400711D5042001F0F1FF0024DFF87C909F
:1029000008E000BF09EB840707F10800FEF709FEA5
:10291000BD60641CB442F5D398F80100000711D5DE
:10292000082001F0DBFF0024DFF8548008E000BF3E
:1029300008EB840707F10800FEF7F3FDBD60641C97
:10294000B442F5D3002001F0C9FF002001F0C6FF1A
:10295000BDE8F047012001F0ABBF00004C050020AE
:102960008C04002000007A442564205B415D3A25F8
:102970002E33660D0A000000B0040020D4040020AD
:10298000F8040020F0B5012187B00803FFF704FD2B
:1029900001210720FFF7DCFC324F052211463846A3
:1029A000FFF723F8052206213846FFF71EF8052217
:1029B00007213846FFF719F8E020009002208DF833
:1029C000040000248DF806408DF8070003268DF8DA
:1029D000056069463846FEF7D5FF01258DF804509D
:1029E00013208DF8064000908DF807508DF8056093
:1029F00069463846FEF7C6FF8DF80450E8038DF8A7
:102A0000064000908DF807508DF80560694616481D
:102A1000FEF7B8FF154E0021304600F029F8304689
:102A200000F030F8ADF808404FF48270ADF80A00BD
:102A3000ADF810506802ADF812000720ADF80C4058
:102A4000ADF81440ADF81800ADF80E40ADF81640E2
:102A500002A9304600F04BF80121304600F008F89A
:102A600007B0F0BD00000240000802400030014005
:102A70000029018802D041F0400101E021F040012D
:102A800001807047114910B588420AD18414012190
:102A90002046FFF78DFC2046BDE810400021FFF7DF
:102AA00087BC0B49884202D10121041404E0094982
:102AB00088420AD10121C4132046FFF761FC204659
:102AC000BDE810400021FFF75BBC10BD00300140A5
:102AD00000380040003C00400246002012890A42B3
:102AE00000D001207047808970478181704730B5E0
:102AF00002884C8802F441530A88CD8822438C888E
:102B00002C4322430C8922434C8922438C89224343
:102B1000CC8922431A430280828B22F40062828392
:102B2000098A018230BD704710B58A0721F003047D
:102B30000649130F21440F228C689A4094438C60FD
:102B40008A68984002438A6010BD0000000001407E
:102B50002DE9F05FFE480168FE480A79C91DFDF7BE
:102B6000E5FADFF8F083B8F80400C0F3072141EA82
:102B70000020A8F8040098F80110080711D098F870
:102B8000020004280DD298F8032062B10020012A27
:102B900000D00022104304D098F80600401E0628FA
:102BA00003D306211EE00120F3E7EB4EDFF8AC93E0
:102BB0008020DFF8ACA3F071DFF8A8B389F8070034
:102BC0008AF807008BF80700E74CC80717D094F87D
:102BD0002C0084280BD00C2809D0042807D02028EA
:102BE00005D00321BDE8F05F2920FFF763BC012079
:102BF000FEF764F894F82C100020FEF781F898F89E
:102C00000100800711D594F82D00842805D00C28E8
:102C100003D0042801D02028C3D10220FEF74EF8AB
:102C200094F82D100020FEF76BF898F8010040078B
:102C300011D594F82E00842805D00C2803D0042840
:102C400001D02028ADD10420FEF738F894F82E10DA
:102C50000020FEF755F898F80100000711D594F808
:102C60002D00842805D00C2803D0042801D020286A
:102C700097D10820FEF722F894F82F100020FEF7D5
:102C80003FF80020FEF71AF800212920FFF712FC78
:102C900098F80100B549C20701D010224A83820783
:102CA00003D5B34B4FF400421A8042074FF001079F
:102CB00000D54F83000701D50220488398F8020011
:102CC000C0F10300C0B240F070010320FEF762F9CA
:102CD0001420FEF745F90020FDF7F0FF98F80100F9
:102CE000A44DC10703D0296841F4806129608107A0
:102CF00003D5296841F004012960410703D52968FB
:102D000041F002012960000703D5286840F0010066
:102D1000286098F80300002480B101287ED18D48F6
:102D2000B0F90410944800295ED007709348016000
:102D300093A000F0E3FFDFF86882B0E188F8067046
:102D4000D220FEF705FC707868B128682C6074709A
:102D5000D6F80200401CC6F802000120FEF70EF86B
:102D60001620FEF7FDF899F80110484669B1296868
:102D70002C604470D0F802100220491CC9F80210DF
:102D8000FDF7FCFF1620FEF7EBF89AF8011050460D
:102D900069B129682C604470D0F802100420491CE5
:102DA000CAF80210FDF7EAFF1620FEF7D9F89BF8E3
:102DB0000110584669B129682C604470D0F802109F
:102DC0000820491CCBF80210FDF7D8FF1620FEF7AB
:102DD000C7F898F80600FFF73DFD72A000F08EFFDF
:102DE0004FF400417848B0E10470644807609FE701
:102DF0007648007820B398F8000030B9744801F0A4
:102E000027FC5349086088F80070514801688879A8
:102E1000A1286DD198F8042092B100E099E1C97918
:102E2000012904D005290FD0152961D13DE098F87A
:102E30000100012802D002285AD102E0FFF74AFC23
:102E400056E00021012047E098F8010008284FD201
:102E5000DFE800F04E04090E1114171A00210120BA
:102E6000FFF728FB01E0FFF735FC88F804403FE05E
:102E7000FFF73AFBF9E7FFF773FBF6E7FFF7AEFB67
:102E8000F3E7FFF7E9FBF0E700210520FFF712FB6E
:102E9000504988F800400C704C490C7088F801408B
:102EA00088F8044000F0A2FC22E098F8010006280F
:102EB0001ED2DFE800F01D0306090C0FFFF714FB1C
:102EC00016E0FFF74DFB13E0FFF788FB10E0FFF77C
:102ED000C3FB0DE000211520FFF7ECFA3D4888F810
:102EE000004004703948047000F080FC88F801400C
:102EF0003948007830B31748417898F80200814289
:102F000020D108213048FEF786FD0120FEF720FB86
:102F100010488079FFF79EFC2F480470404688F8DF
:102F200002402A49097869B1C1780029FCD1C770EB
:102F30000220FEF70DFB98F80100401C88F8010004
:102F400088F80470707808B1747047E04EE00000B3
:102F50000C0000204C0500208C040020B004002050
:102F6000D4040020F80400201C05002000000240CA
:102F70001A08024000040140240000202000002024
:102F800053616D706C696E672C506C656173652060
:102F900077616974696E672E2E2E0D0A000000009D
:102FA0004804002053616D706C696E67206861731E
:102FB000206265656E20636F6D706C657465642E4C
:102FC0002E2E0D0A00000000000402400800002020
:102FD000140000200900002003000020D6F80200A1
:102FE000401CC6F802000120FDF7C8FE99F8010058
:102FF00048B189F80140D9F802100220491CC9F8EB
:103000000210FDF7BBFE9AF8010048B18AF80140B2
:10301000DAF802100420491CCAF80210FDF7AEFECF
:103020009BF8010048B18BF80140DBF80210082042
:10303000491CCBF80210FDF7A1FE4748D6F8021054
:103040008079884207D1C6F8024098F8022042F001
:10305000010288F80220D9F80220904207D1C9F86D
:10306000024098F8022042F0020288F80220DAF8C2
:103070000220904207D1CAF8024098F8022042F09C
:10308000040288F80220DBF80220904207D1CBF836
:10309000024098F8021041F0080188F802102F4809
:1030A000006800287FF4A4AE2D482B4F0470787878
:1030B000C0070AD028682C6074700120FDF7FEFD5F
:1030C0001620FDF74DFFC6F80240787880070CD532
:1030D00028682C604E4689F801400220FDF7EEFD7D
:1030E0001620FDF73DFFC6F80240787840070CD562
:1030F00028682C6056468AF801400420FDF7DEFD62
:103100001620FDF72DFFC6F80240787800070CD591
:1031100028682C605D468BF801400820FDF7CEFD45
:103120001620FDF71DFFC5F80240AFF2881000F031
:10313000E5FD0C48082104700B4804700B4C204638
:10314000FEF767FC4FF400412046BDE8F05FFEF754
:1031500062BCBDE8F09F00004C050020200000206C
:10316000240000200300002004000020000402408E
:1031700070B505460E46A12001F0C2FB002405E013
:10318000287801F0ABFB641CE4B26D1CB442F7D3A9
:10319000BDE87040012001F08BBB00000CB50021A0
:1031A0002F4801910091026842F4803202604FF48E
:1031B000A043026802F400320092019A521C01926C
:1031C000009A12B9019A9A42F3D10268920345D546
:1031D0000121009123490A6842F004020A600A684A
:1031E00042F002020A600A6842F001020A601C49C9
:1031F00024310A6842F080520A608A141A490A602F
:103200004A68D206FCD4164908310A680A600A687E
:103210000A600A680A600A6822F47D020A600A6885
:1032200042F49A020A60026842F080720260026808
:103230009201FCD50A6822F003020A600A6842F093
:1032400003020A600A680A60026822F4807202605F
:103250000868C0F381000328FAD10CBD00910CBDB1
:1032600000380240003C02400070004014480078E2
:1032700018B114490888401C08801348007868B1C8
:10328000124940F2E7320868401C0860904205D3BA
:10329000002008600E480168491E01600D48017851
:1032A00011B10178491E08E00B480078002805D0CC
:1032B0000A480178002901D10121017070470000FE
:1032C0000200002000000020240000201C0000203C
:1032D0002000002018000020090000200800002025
:1032E000104810B5016841F4807101600D49083142
:1032F0000A680D4B1A400A6002680C4B1A400260C3
:10330000026822F480220260086820F47D000860D0
:10331000091D00200860FFF741FF05494FF00060DC
:10332000086010BD003802400CC03F88FEFFFEEE72
:1033300008ED00E01FB54FF08044204600F0B2F8E1
:1033400001210846FFF710F84FF4E060FEF7C8FFD0
:103350001C208DF80C0001218DF80D1004208DF833
:103360000E008DF80F1003A8FEF788FF01212046FC
:1033700000F088F801221146204600F011F920469D
:1033800000F016F94FF4C870019048F6FF70ADF8E0
:1033900000000021ADF80810ADF802106946204683
:1033A00000F00CF90121204600F072F81FBD00006A
:1033B00010B501218C07204600F0E6F8002808D05F
:1033C0000121204600F061F80248018881F4804123
:1033D000018010BD1404024001211020FEF7C4BF7B
:1033E00010B5064C00220121204600F0D9F82046F5
:1033F000BDE81040002100F04BB800000010004074
:1034000010B5094C0121204600F0BEF800280AD072
:103410000121204600F039F804480168002902D053
:103420000168491E016010BD00100040100000201E
:1034300031B584B04FF47A71049801900F4800249C
:103440000F4D0068ADF80840B0FBF1F0ADF800009A
:10345000ADF802406946284600F0B0F80121284640
:1034600000F013F86C6201221146284600F098F82B
:103470000121284600F00CF805B030BD680400209A
:1034800000100040C94301827047C9430182704760
:103490000029018802D041F0010101E021F0010181
:1034A0000180704710B5B0F1804F09D02E49884295
:1034B0000DD101210220FEF763FF002102202DE043
:1034C00001210846FEF75CFF0021012026E0274984
:1034D000884206D101210420FEF752FF002104207A
:1034E0001CE02349884206D101210820FEF748FF4D
:1034F0000021082012E01F49884206D10121102036
:10350000FEF73EFF0021102008E01B49884209D148
:1035100001212020FEF734FF00212020BDE81040CB
:10352000FEF72EBF1549884206D101210420FEF77F
:103530003FFF0021042012E01149884206D10121F9
:103540000820FEF735FF0021082008E00D498842D9
:1035500009D101211020FEF72BFF00211020BDE82A
:103560001040FEF725BF10BD0004004000080040D9
:10357000000C004000100040001400400008014012
:10358000000C01400010014002460020138A92897D
:103590000B4202EA010202D0002A00D0012070474B
:1035A000002A828901D00A4300E08A438281704761
:1035B000018921F007010181704700000288B0F104
:1035C000804F08D00F4B984205D00F4B984202D045
:1035D0000E4B984203D122F070034A881A430C4BD9
:1035E000984206D00B4B984203D022F440730A89CC
:1035F0001A4302804A68C2620988018501218182DA
:10360000704700000004004000080040000C00402B
:10361000001000400014004070B501218EB0080673
:10362000FEF796FE194E3046FDF7D4FE184800907E
:103630000CA8019010200125CDE90205002480206E
:10364000CDE904404FF44050CDE90840069407947A
:10365000694630460A94FDF747FF0E208DF82C008E
:103660008DF82D408DF82E508DF82F500BA8FEF7B9
:1036700005FE012202213046FDF72EFF04480122FB
:103680008021001F00F064F90EB070BD446002405C
:103690000438014030B587B000240290ADF81040E6
:1036A0000C20ADF80C40ADF812000121ADF80E4031
:1036B000ADF814408803FEF76FFE194D072209216B
:1036C0002846FEF792F907220A212846FEF78DF9CF
:1036D0006815009002208DF8040003208DF8050085
:1036E0008DF8064001208DF8070069462846FEF750
:1036F00049F92815009069462846FEF743F9094C18
:1037000002A9204600F06AF90121204600F016F9CE
:10371000012240F22551204600F048F907B030BDA3
:103720000000024000380140094A30B4536C47F6AB
:10373000F074A34343F2900423435364054BD364D2
:10374000106591640248012130BC4430FDF736BE5B
:10375000006002400438014030B587B00024029078
:10376000ADF810400C20ADF80C40ADF8120001216E
:10377000ADF80E40ADF814404804FEF7F5FD194DC4
:10378000072202212846FEF730F9072203212846A6
:10379000FEF72BF90420009002208DF8040003208E
:1037A0008DF805008DF8064001208DF80700694668
:1037B0002846FEF7E7F80820009069462846FEF7FD
:1037C000E1F8094C02A9204600F008F90121204641
:1037D00000F0B4F8012240F22551204600F0E6F84E
:1037E00007B030BD00000240004400400248002104
:1037F000016041607047000064050020054803C86F
:10380000814202D14FF6FF7070474FF47A7000F09A
:1038100003B80000640500200949D1E9003203E043
:10382000401E0004000C08D09A42F9D0C2F30900EF
:103830000844521C4A60007A70474FF6FF70704788
:103840006405002070B51B4D194C40F225512846E7
:1038500000F08DF8002829D0284600F024F9C2B2E3
:103860001548007820B1BDE8704014A000F046BAB9
:10387000D4E900010B1A9D05154B02D01D78002DCF
:1038800014D005251D70411AB1F5806F09D2C0F31F
:10389000090020440F4902722068401C206001206A
:1038A000087020782179401A0B49087070BD00001B
:1038B0006405002000380140080000205470612099
:1038C00064617461206C6F7374210D0A0000000044
:1038D00018000020330000200900002070B5124DB0
:1038E00040F225560F4C3146284600F040F800289B
:1038F00017D03146284600F01BF8284600F0D3F8D0
:10390000C1B2D4E90002821AB2F5806F09D2C0F3C5
:1039100009002044017220680449401C20600120F5
:10392000087070BD6C090020004400403400002085
:103930000A0A01219140C943018070470029818909
:1039400002D041F4005101E021F40051818170471F
:10395000002A828A01D00A4300E08A4382827047AB
:103960000246002012880A4200D00120704730B57C
:1039700001F01F0201240025C1F3421304FA02F2F0
:10398000012B0FD0022B0FD0838A4FEA1121008820
:10399000134204FA01F400EA040001D000B1012549
:1039A000284630BD8389F0E7038AEEE710B5C1F3FE
:1039B000421301F01F040121A140012B07D0022B6B
:1039C00007D01430002A026805D00A4304E00C3006
:1039D000F8E71030F6E78A43026010BD7FB5044671
:1039E000008A0D4620F44051E88808432082A089CF
:1039F00041F20C618843A9882A8911436A890243EC
:103A00001143A181A08A20F44071A8890843A082B3
:103A10006846FEF7E1FC1948844201D1039800E0B2
:103A20000298A189090400EBC00101EB001029688C
:103A300001D5490000E08900B0FBF1F06422B0FB41
:103A4000F2F109010B096FF018056B4300EB8300DD
:103A5000A3891D044FF0320306D503EBC000B0FB71
:103A6000F2F000F0070005E003EB0010B0FBF2F00D
:103A700000F00F00084320817FBD000000380140A6
:103A800070B50646002400F012F84FF4A0258021FE
:103A90003046FFF765FF002804D12046641CA4B21D
:103AA000A842F4D370BD8088C0F308007047C1F30A
:103AB000080181807047FEE710B50FA000F01EF9E5
:103AC0000120FDF7FBF80C210020FDF719F9CD20AE
:103AD000FDF73EFDFDF76EFA124C6FF00601FCF7A4
:103AE000FFFB2060042221464020FEF74BFBBDE88F
:103AF00010400DA000F002B94368616E6E656C2045
:103B0000412053657474696E6720746F205A657222
:103B10006F2C506C6561736520776169742E2E2E51
:103B20000D0A00001C0500204368616E6E656C2064
:103B3000412053657474696E67204F4B210D0A0054
:103B400010B512A000F0DAF80220FDF7B7F80C214A
:103B50000020FDF7D5F81220FDF702FACD20FDF781
:103B6000F7FCFDF727FA144C6FF00601FCF7B8FBE1
:103B7000C4F80B00042204F10B014B20FEF702FBFA
:103B8000BDE810400DA000F0B9B800004368616EB8
:103B90006E656C20422053657474696E6720746F83
:103BA000205A65726F2C506C65617365207761696E
:103BB000742E2E2E0D0A00001C0500204368616E35
:103BC0006E656C20422053657474696E67204F4B9C
:103BD000210D0A0010B512A000F090F80420FDF7A6
:103BE0006DF80C210020FDF78BF81220FDF7B8F9D5
:103BF000CD20FDF7ADFCFDF7DDF9144C6FF00601AB
:103C0000FCF76EFBC4F81600042204F116015620DE
:103C1000FEF7B8FABDE810400DA000F06FB8000044
:103C20004368616E6E656C20432053657474696EE1
:103C30006720746F205A65726F2C506C65617365D4
:103C400020776169742E2E2E0D0A00001C050020BD
:103C50004368616E6E656C20432053657474696EB1
:103C600067204F4B210D0A0010B512A000F046F856
:103C70000820FDF723F80C210020FDF741F8122061
:103C8000FDF76EF9CD20FDF763FCFDF793F9144CB9
:103C90006FF00601FCF724FBC4F82100042204F1B4
:103CA00021016120FEF76EFABDE810400DA000F082
:103CB00025B800004368616E6E656C204420536532
:103CC0007474696E6720746F205A65726F2C506C23
:103CD0006561736520776169742E2E2E0D0A0000D0
:103CE0001C0500204368616E6E656C20442053659E
:103CF0007474696E67204F4B210D0A000FB4054B99
:103D000010B503A9044A029800F0CAF810BC5DF887
:103D100014FB00003D4600088804002002E008C8AB
:103D2000121F08C1002AFAD170477047002001E035
:103D300001C1121F002AFBD1704700002DE9FF5F6F
:103D4000DDE90220010DDDF838B0024318D044F659
:103D50001050A1F2FF3141430D140F98012820D0DB
:103D6000A5EB0B00401C5FEA000A4FF00004474E31
:103D7000DFF81C91A046504616D5CAF1000728E08E
:103D80000F98012443A2012808D0002100980F9B1E
:103D9000C0E90021C0E90243BDE8FF9F6FEA0B01C3
:103DA000F4E7CBF10000DEE7074612E0F80707D0A2
:103DB0002246334640464946FCF79EFA80468946ED
:103DC0002246334610461946FCF796FA04460E463C
:103DD0007F10002FEAD1DDE90201BAF1000F42465F
:103DE0004B4602DAFCF788FA01E0FCF7F7FA0446E2
:103DF0000E460022284BFCF75BFD03D84FF0FF3046
:103E0000014607E00022254B20463146FCF791FC95
:103E1000FCF736FD102409E0002C0ADB0A220023FF
:103E2000FCF7C2FB019B30321A55641E50EA0102B6
:103E3000F2D1641C019AC4F1110314440F9A012AAF
:103E400003D0012208430DD10AE0084304D000202A
:103E50004FF0110B0F9080E7A3EB0B056D1E0DE0EB
:103E60005B4504DD4FF0000205F1010504E003DAD3
:103E70004FF00002A5F10105002AECD000980F993F
:103E8000C0E90231C0E9004586E700000000244097
:103E90000000F03F300000000000F0430000E03F71
:103EA0002DE9FF4F95B09B468946064600250FE257
:103EB000252877D100242746F84A0121059400E0FF
:103EC000044316F8013F203B01FA03F01042F7D1FA
:103ED00030782A2811D06FF02F033078A0F130020B
:103EE000092A16D8059A44F0020402EB820203EB79
:103EF00042021044761C0590EFE759F8042B059216
:103F0000002A03DA504244F40054059044F00204BD
:103F1000761C30782E2816D116F8010F44F00404D0
:103F20002A280DD06FF02F023078A0F13003092B32
:103F300009D807EB870302EB4303C718761CF3E7A6
:103F400059F8047B761C30786C280FD006DC4C289E
:103F500017D068280DD06A2814D104E0742810D036
:103F60007A280FD10DE044F400140AE044F48014E0
:103F700001E044F440147278824202D104F58014C6
:103F8000761C761C307866280BD013DC582877D046
:103F900009DC002875D04528F6D04628F4D04728FB
:103FA0001AD19DE118E0632835D0642879D06528BE
:103FB00012D195E1702873D008DC6728F1D0692808
:103FC0006FD06E280DD06F2806D1B5E073282CD0A5
:103FD000752875D0782874D05A46179990476D1C6B
:103FE00075E1C4F30250022809D003280DD0D9F896
:103FF000001004280DD00D6009F1040967E1D9F81B
:104000000010EA17C1E90052F6E7D9F800100D8058
:10401000F2E70D70F0E719F8041B8DF8001000208E
:104020008DF80100EA46012003E059F804AB4FF097
:10403000FF3061074FF0000102D40DE008F10101EB
:104040008846B9420FDA8045F8DB1AF808100029D3
:10405000F4D108E008F1010188468142FADB1AF840
:1040600008100029F6D105985B46A0EB0807214609
:104070003846179A00F094FA284400EB080507E048
:104080004DE029E10DE01AF8010B5A4617999047C7
:10409000B8F10108F7D25B4621463846179A13E17A
:1040A00042E00A220092C4F302524FF0000A022AB0
:1040B00008D059F804CB032A4FEAEC710AD00DE07E
:1040C00029E02AE009F1070121F00702F2E802C124
:1040D000914609E00FFA8CFC4FEAEC71042A03D1F7
:1040E0004FFA8CFC4FEAEC71002907DA0A460021EE
:1040F000DCF1000C61EB02012D2202E0220504D567
:104100002B228DF80420012203E0E20701D02022B7
:10411000F7E7904659E00A2102E010220DE0102155
:104120004FF0000A00910BE010224FF0000A44F01B
:1041300004040827009203E008224FF0000A0092CE
:10414000C4F30252022A05D059F804CB0021032AF5
:1041500008D009E009F1070121F00702F2E802C1E5
:10416000914605E01FFA8CFC042A01D10CF0FF0CEB
:104170004FF00008220728D5702806D0009B83F056
:10418000100353EA0A0305D00EE040228DF8042004
:10419000012208E05CEA010206D030228DF80420FA
:1041A0008DF8050002229046009B83F0080353EA35
:1041B0000A030AD15CEA010201D1620705D5302267
:1041C0008DF804204FF001087F1E582804D034A039
:1041D00003900EA802900DE036A0F9E75346604622
:1041E000009AFCF7E1F984460398825C0298401E2D
:1041F000029002705CEA0100F0D1029806A9081A48
:1042000000F1200A600702D524F4803400E0012781
:10421000574502DDA7EB0A0000E0002000EB0A0191
:10422000009005984144401A0590E00306D45B468F
:104230002146179A059800F0B3F90544002706E0D7
:1042400001A85A46C05D179990476D1C7F1C4745D1
:10425000F6DBE0030CD55B462146179A059800F083
:104260009FF9054404E030205A46179990476D1C89
:104270000099481E00900029F5DC08E00298029998
:104280005A460078491C0291179990476D1CBAF163
:104290000001AAF1010AF1DC65E100000928010032
:1042A00030313233343536373839616263646566AC
:1042B000000000003031323334353637383941426E
:1042C000434445460000000000F058F90544761CC0
:1042D000307800287FF4ECAD19B02846BDE8F08FA7
:1042E000620700D4062709F1070222F0070CFCE858
:1042F0000223E14603F000485FEA080C02D00FF207
:10430000702C0DE05FEA045C02D50FF2682C07E028
:104310005FEAC47C02D00FF2602C01E0AFF2700CB7
:104320004FF0FF3823F00043CDF850C065280CD083
:1043300006DC452809D046281DD047283DD13DE060
:10434000662818D067287ED138E00021112F01DBC4
:10435000112000E0781CCDE9000106A90EA8FFF7A6
:10436000EDFCDDE90F010E9A03910021009207F1A7
:10437000010A04914DE04FF000400097CDE9011093
:1043800006A90EA8FFF7DAFCDDE90F0203920E9BE7
:1043900011990022DDF80CA00093049211B9791C48
:1043A00000EB010AB7EB0A0004D4C0F1FF3007F1BB
:1043B000010A0490AAEB0700019044E0012F00DA03
:1043C00001270021112F01DD112000E03846CDE941
:1043D000000106A90EA8FFF7B1FCDDE90F010E9A56
:1043E0000391002104910092BA4621070CD403994D
:1043F000514500DA8A46BAF1010F05DD009AAAF1AB
:104400000101515C302908D0B84202DA10F1040FE2
:1044100006DA0121CDE9011015E0AAF10101E9E771
:10442000002805DC049901440491AAEB000102E094
:10443000411C514500DD8A460499401A401C0190F8
:104440004FF000400290200704D40198504501DB52
:10445000CDF8048000208DF84F0002980DF14F0731
:10446000B0F1004F25D02B200E9002984FF002089B
:1044700000280CDA404202902D200E9007E00A211D
:104480000298FCF77BF83031029007F8011DB8F173
:104490000001A8F10108F2DC02980028EFD1791E92
:1044A0000E980870307800F0200040F0450007F8C2
:1044B000020D12A8C01B00F107081498007800B183
:1044C000012000EB0A01019801EBE07105984144DD
:1044D000401A401E0590E00306D45B462146179A19
:1044E000059800F05DF805441498007818B15A4614
:1044F000179990476D1CE00324D55B462146179A17
:10450000059800F04DF805441CE00498002807DBEE
:10451000DDE90301884203DD0098405C179901E062
:10452000179930205A469047049805F10105401C20
:1045300004900198401E019004D12E205A461799EC
:1045400090476D1CBAF10001AAF1010ADDDC05E01B
:1045500017F8010B5A46179990476D1CB8F10001E6
:10456000A8F10108F4DC5B462146179A0598ABE6F2
:104570002D0000002B000000200000002DE9F0417C
:10458000044600251E461746880404D405E0394633
:104590002020B0476D1C641EF9D52846BDE8F08187
:1045A0002DE9F041044600251E469046C80301D57A
:1045B000302700E02027880404D505E0414638462E
:1045C000B0476D1C641EF9D52846BDE8F081000097
:1045D00030B50A4A084CD1680B46491C7E2804D0E5
:1045E0007D2802D0E054D16030BD7D25E55480F0B7
:1045F00020006054491CF6E7740D002038000020AC
:1046000070B50246002041F221044FF6FF7510E01C
:1046100012F8013B80EA03200823060403D584EA4C
:10462000400080B201E005EA40005B1E13F0FF038A
:10463000F3D10B1EA1F10101EADC70BD10B50446F7
:10464000C1B20248FFF71CFA204610BD00440040EA
:10465000F8B50746684600F0E3F80446254600260C
:1046600006E000BF15F8011B0AA0FFF747FB761C08
:1046700000988642F6DB2078442806D10749607806
:1046800048700321054800F053F90098C01E3860B7
:10469000E01CF8BD307825582000000038000020CC
:1046A0004FF4C060FDF71CFE4C484FF47A7100686F
:1046B000B0FBF1F0401EB0F1807F2FD24FF0E0212F
:1046C0004861474AF02082F8140D00258D610720CB
:1046D0000861FEF781FEFDF70DFEFDF70FF9FEF70D
:1046E00051F94048FEF7D6FFFEF796FF4FF47A30B7
:1046F000FFF732F8FDF70EFEFDF7BEFAFEF71AFEE1
:10470000FCF736FFFCF7F4FFFDF750F8FCF78EFFDF
:104710005D20FDF7B5FE012801D005E0FEE732A0DF
:10472000FFF7ECFAFDF750FE42F21070FDF76CFD5A
:10473000302232494020FDF7FBFAFDF783FD30A01F
:10474000FFF7DCFA334C344F4FF4006631480C303D
:10475000FFF77EFF606065702570FFF747F82FA0B8
:10476000FFF7CCFA60688079A128EFD1314638464E
:10477000FDF751F9C820FCF7EBFE6068C0791528F9
:104780001ED00CDC012813D0032816D00528DDD15B
:10479000FDF7A0FFFEF752F80021052014E01728CE
:1047A00015D01D2816D02928D0D1FEF7D1F9CDE794
:1047B000FDF790FF0021012006E0FCF7FFF8C5E7B8
:1047C000FEF73CF800211520FDF774FEBEE7FCF76C
:1047D00069FCBBE7FCF76CFDB8E70000680400204B
:1047E0000FE000E0A08601005761746368646F67A2
:1047F000205265736574210D0A0000001C0500201D
:104800004861726477617265207265616479210D17
:104810000A00000008000020000402400D0A000009
:104820002DE9F047002581462E462C464FF6FF77AE
:10483000DFF87880FEF7E2FFB84206D0C0B23DB1A3
:10484000B4F5806F07DB0025F4E7FDF7FBFCF1E72B
:104850007E28EFD106E04EB17E2803D080F0200004
:10486000002607E0012500242646E3E77D2805D041
:104870007E2805D008F80400641CDBE70126D9E790
:1048800025460024042D01DA0125D3E708EB0500B5
:10489000A91E30F802AC0548FFF7B2FE8245F3D1FD
:1048A0000248C9F80050BDE8F08700004800002029
:1048B000084810B58168092908DD074AA1F10A00F6
:1048C000D071104600F034F8012010BD4FF0FF30D9
:1048D00010BD00003800002074110020064A9168C5
:1048E000DC2903DD00209060401E7047034B5854C4
:1048F000491C01209160704738000020741100208D
:1049000009494522FF230A704A78521C4A70002246
:104910008A70CB700B714A718A71CA710A724872BF
:1049200002490A2088607047741100203800002076
:104930002DE9F05F83460F46DC2903DD4FF0FF30A1
:10494000BDE8F09F184C606810B16FF00100F7E708
:10495000012558466560FFF753FEDFF850904FF091
:104960007E084FF0000A89F80080E560064655464B
:1049700005E000BF1BF80500FFF72AFE6D1CBD42D5
:10498000F8DBF0B2FFF724FE300AFFF721FEE16802
:10499000064809F80180491CE160FEF7C5FE0120C8
:1049A000C4F804A0CCE7000038000020740D0020FB
:1049B000D0490008000000208C04000066090008AF
:1049C000044A00088C040020CC1200002C3D000892
:1049D0000138F24304FF01030501FF01FF01FF411C
:1049E0001201380A030406080C101820300F2C029C
:1049F0000304044506070809BBC2011F6923691F98
:044A00003100000081
:04000005080000F5FA
:00000001FF
